:020000040800F2
:1000000000000220191E0008ED1D0008EF1D000869
:10001000F11D0008F31D0008F51D00080000000098
:10002000000000000000000000000000F71D0008B4
:10003000F91D000800000000FB1D0008FD1D000860
:10004000691E0008691E0008691E0008691E000874
:10005000691E0008691E0008691E0008691E000864
:10006000691E0008691E0008691E0008691E000854
:10007000691E0008691E0008691E0008691E000844
:10008000691E0008691E0008691E0008691E000834
:10009000691E0008691E0008691E0008691E000824
:1000A000691E0008691E0008691E0008691E000814
:1000B000691E0008691E0008691E0008691E000804
:1000C000691E0008691E0008691E0008691E0008F4
:1000D000691E0008691E0008691E0008691E0008E4
:1000E000691E0008691E0008691E0008691E0008D4
:1000F000691E0008691E0008691E0008691E0008C4
:10010000691E0008691E0008691E0008691E0008B3
:10011000691E0008691E0008691E0008691E0008A3
:10012000691E0008691E0008691E0008691E000893
:10013000691E0008691E0008691E0008691E000883
:10014000691E0008691E0008691E0008691E000873
:10015000691E0008691E0008691E0008691E000863
:10016000691E0008691E0008691E0008691E000853
:10017000691E0008691E0008691E000800000000D2
:08018000691E0008691E000859
:1001880010B5054C237833B9044B13B10448AFF3C9
:1001980000800123237010BD100000200000000023
:1001A800C41E000808B5034B1BB103490348AFF34D
:1001B800008008BD0000000014000020C41E0008D4
:1001C80053B94AB9002908BF00281CBF4FF0FF31B6
:1001D8004FF0FF3000F06EB9ADF1080C6DE904CEB8
:1001E80000F006F8DDF804E0DDE9022304B070470A
:1001F8002DE9F047089D04468C46002B40F083808B
:100208008A42174647D9B2FA82F242B1C2F12000B7
:1002180024FA00F09140974040EA010C94404FEADC
:100228001748230CBCFBF8F61FFA87FE08FB16C11B
:1002380043EA014306FB0EF1994209D9FB1806F17E
:10024800FF3080F01981994240F21681023E3B440A
:100258005B1AA4B2B3FBF8F008FB103344EA03447A
:1002680000FB0EFEA64509D93C1900F1FF3380F0CA
:100278000581A64540F2028102383C4440EA064026
:10028800A4EB0E0400261DB1D4400023C5E90043A9
:100298003146BDE8F08702B9FFDEB2FA82F2002AE1
:1002A80050D1CB1B4FEA174E1FFA87F80126B3FB34
:1002B800FEFC210C0EFB1C3341EA034108FB0CF346
:1002C8008B4207D979180CF1FF3002D28B4200F229
:1002D800E9808446C91AA3B2B1FBFEF00EFB1011E7
:1002E80043EA014408FB00F8A04507D93C1900F18E
:1002F800FF3302D2A04500F2D9801846A4EB0804C7
:1003080040EA0C40BFE78B4209D9002D00F0B180CC
:100318000026C5E9000130463146BDE8F087B3FA4A
:1003280083F6002E4AD18B4202D3824200F2B88073
:10033800841A61EB030101208C46002DA8D0C5E981
:10034800004CA5E7C2F1200320FA03F6974001FA12
:1003580002F04FEA174ED9403043030CB1FBFEF6CA
:100368001FFA87F80EFB161143EA014306FB08F152
:10037800994204FA02F409D9FB1806F1FF3C80F00F
:100388008D80994240F28A80023E3B445B1A81B2DA
:10039800B3FBFEF00EFB103341EA034100FB08F308
:1003A8008B4207D9791800F1FF3C73D28B4271D97F
:1003B80002383944CB1A40EA064678E7C6F1200CE1
:1003C80003FA06F422FA0CF31C4320FA0CF701FA9C
:1003D80006F34FEA144E21FA0CF11F433B0CB1FB14
:1003E800FEF91FFA84F80EFB191143EA014109FBD3
:1003F80008FA8A4502FA06F200FA06F308D96118E3
:1004080009F1FF3048D28A4546D9A9F102092144A9
:10041800A1EB0A01BFB2B1FBFEF00EFB101147EAD7
:10042800014700FB08F8B84507D9E71900F1FF3183
:100438002ED2B8452CD90238274440EA0940A7EB08
:100448000807A0FB02894F45C64649461AD317D06C
:100458005DB1B3EB0E0267EB010707FA0CFCF24043
:100468004CEA0202F740C5E9002700263146BDE8FC
:10047800F0872E4628460BE70646E9E61846FDE6CD
:100488004345E5D2B8EB020E69EB04010138DFE71A
:100498000846D2E760468DE78146B9E7664675E7C4
:1004A80030464AE7ACF1020C394413E702383C44C1
:1004B80024E700BF704700BF10B504460E4B1878FC
:1004C8004FF47A73B3FBF0F30C4A1068B0FBF3F007
:1004D80000F09EF868B90F2C01D901200AE000222B
:1004E80021464FF0FF3000F05FF8054B1C600020FC
:1004F80000E0012010BD00BF00000020080000201F
:100508000400002008B50B4B1A6842F400721A6008
:100518001A6842F480621A601A6842F480721A609B
:10052800032000F02FF80020FFF7C6FF01F06CFB56
:10053800002008BD003C0240034A1168034B1B78A9
:100548000B441360704700BF2C00002000000020FF
:10055800014B1868704700BF2C00002038B50446CE
:10056800FFF7F6FF0546B4F1FF3F02D0044B1B78B6
:100578001C44FFF7EDFF401BA042FAD338BD00BF73
:1005880000000020074AD36823F4E0631B041B0C17
:10059800000200F4E060034343F0BF6343F4003318
:1005A800D360704700ED00E030B4174BDB68C3F34D
:1005B8000223C3F10704042C28BF04241D1D062DA3
:1005C80018D9033B4FF0FF3505FA04F421EA04017A
:1005D800994005FA03F322EA0303194300280BDBC9
:1005E8000901C9B200F1604000F5614080F80013CC
:1005F80030BC70470023E5E700F00F000901C9B2DD
:10060800024B1954F4E700BF00ED00E014ED00E0E0
:100618000138B0F1807F0AD2064B5860064AF021B3
:1006280082F823100020986007221A607047012082
:10063800704700BF10E000E000ED00E000230F2B42
:1006480000F2DD80F0B482B05DE086685F000324CC
:10065800BC4026EA0406CC68BC4034438460466843
:1006680026EA02064C68C4F300129A4032434260FC
:1006780057E0DC08083450F8247003F007029600AD
:100688000F22B24027EA02070A69B2403A4340F80B
:1006980024205AE0072200E00022B2403A43023404
:1006A800574E46F82420574A1468EA4324EA0506B8
:1006B8004F6817F4803F01D045EA0406514C266084
:1006C800646802EA04064F6817F4003F01D045EA5F
:1006D80004064C4C6660A46802EA04064F6817F4E6
:1006E800801F01D045EA0406464CA660E468224013
:1006F8004E6816F4001F01D045EA0402414CE2603E
:1007080001330F2B78D801229A400C6804EA0205BD
:1007180032EA0404F4D14C6804F00304013C012CCF
:1007280093D94A6802F00302032A09D0C4685E001C
:100738000322B24024EA02048A68B2402243C2601B
:100748004A6802F00302022A93D004685E0003227A
:10075800B24024EA02044A6802F00302B24022438B
:1007680002604A6812F4403FCAD000220192264A29
:10077800546C44F480445464526C02F480420192F4
:10078800019A9C08A61C1E4A52F8267003F0030220
:1007980096000F22B24027EA02071C4A90423FF413
:1007A8007BAF02F5806290421AD002F580629042D7
:1007B80018D002F58062904216D002F5806290420D
:1007C80014D002F58062904212D002F58062904205
:1007D80010D002F5806290423FF45CAF08225CE7DB
:1007E80001225AE7022258E7032256E7042254E777
:1007F800052252E7062250E702B0F0BC7047704766
:1008080000380140003C014000380240000002402E
:100818000AB181617047090481617047002800F0BE
:10082800CC80F8B5044690F83D30002B77D02423CF
:1008380084F83D302268136823F0010313602268AE
:10084800136843F4004313602268136823F40043D9
:10085800136000F0D5FE62685A4B9A4264D85A4B2E
:1008680098428CBF00230123002B40F0A880574DED
:10087800A5FB0035AF0C2668716821F03F0141EAFD
:100888009541716021680B6A23F03F0365684D4A02
:1008980095424FD87A1C13430B622568E96921F405
:1008A8004F4121F0FF016368464A93424CD8013812
:1008B8005B00B0FBF3F0013040F6FC73184278D0CF
:1008C800C0F30B030B43EB6121680B6823F0C003F3
:1008D800E269206A024313430B6021688B6823F4A2
:1008E800034323F0FF032269E068024313438B604C
:1008F8002168CB6823F0FF036269A06902431343B0
:10090800CB602268136843F0010313600020206461
:10091800202384F83D30206384F83E00F8BD80F839
:100928003C3001F091F982E7294B98428CBF0023B3
:10093800012399E74FF4967202FB07F2254DA5FBB8
:10094800025292090132A6E7A268BAB9461E03EB21
:100958004307B6FBF7F60136C6F30B06B6FA86F67A
:10096800760946BBC2B9421E03EB4303B2FBF3F25E
:100978000132C2F30B0242F40043A3E7461E03EB25
:10098800830707EB8707B6FBF7F60136C6F30B06B6
:10099800B6FA86F67609E4E7421E03EB830303EB17
:1009A8008303B2FBF3F20132C2F30B0242F4404379
:1009B80088E7042386E7012384E7012070470120A4
:1009C800ACE700BFA08601007F841E0083DE1B43C6
:1009D800FF083D00D34D6210002800F0BD8070B5BF
:1009E800044690F84130002B51D0022284F841206F
:1009F8002168CB6923F47B6323F00F03CB61236861
:100A08001A626369934263D0E368002B46D11025CC
:100A1800A368202B00D86D00012000F0ABFE2369ED
:100A2800B3F5007F3CD0B0FBF5F000EB800043004D
:100A38006069B3FBF0F30533484AA2FB0323C3F311
:100A4800C002C2EBD3035B0811029A1EFD2A41D8EB
:100A580022690A43216813430B622168CB6923F496
:100A68007B6323F00F036268A0680243E0680243D7
:100A7800A0690243134343F40063CB61236A012B4B
:100A88002ED000206064012384F8413070BD80F8C6
:100A98004030334B436301F00FF9A6E72025B7E751
:100AA800E36853B1AD00B0FBF5F000EB8000430004
:100AB8006069B3FBF0F30533BEE7ED00B0FBF5F07A
:100AC80000EB800043006069B3FBF0F30533B3E744
:100AD8000021BAE7636C43F0100363640120D5E793
:100AE800204B63632268204B9A421FD04FF040226C
:100AF800D36923F47B6323F00F03D36122681A4B75
:100B08009A4215D04FF0402302221A622268164BEF
:100B18009A4210D04FF04025EB699BB26268B2F55B
:100B2800007F0AD0B2B94FF4807008E00F4ADFE7BF
:100B3800A3F58063E8E70D4DEEE74FF48070268952
:100B4800A189228B304301430A43134343F40063D2
:100B5800EB6196E70020F2E701207047CDCCCCCCC2
:100B6800EF0B0008010E0008003800400034004078
:100B7800704708B5426A03681288DA60436A02332C
:100B88004362438D9BB2013B9BB24385438D9BB22D
:100B980003B108BD0268536823F0A0035360012322
:100BA80080F84130FFF7E4FFF3E7704708B50368C2
:100BB800DA68C36A1A80C36A0233C362438E9BB27F
:100BC800013B9BB24386438E9BB203B108BD0268CA
:100BD800536823F060035360012380F84130FFF726
:100BE800E4FFF3E7704710B584B0044602689368E1
:100BF800039390F84130DBB2042B06D094F84130CF
:100C0800DBB2032B2CD004B010BD039B13F0010FF3
:100C180003D0536813F0400F1FD1039B13F0400F0C
:100C2800ECD023685A6812F0200FE7D05A6822F0F7
:100C380060025A60002301932368DA6801929B6876
:100C48000193019B012384F84130636C43F0020354
:100C580063642046FFF7C6FFD0E7FFF7A7FFDCE78E
:100C6800039B13F0020F04D023685B6813F0800F16
:100C78001DD1039B13F0080FC5D023685A6812F0E2
:100C8800200FC0D05A6822F0A0025A6000230293B5
:100C980023689B680293029B012384F84130636CAC
:100CA80043F0040363642046FFF79CFFABE720464C
:100CB800FFF75FFFDDE7704708B5436A9A1C426299
:100CC80002681B88D360438D9BB2013B9BB243856E
:100CD800438D9BB23BB90268536823F0A00353606D
:100CE800438E9BB203B108BD012380F84130FFF762
:100CF800E2FFF8E708B50268154B9A421CD04FF09E
:100D08004023DA68C36A991CC1621A80438E9BB279
:100D1800013B9BB24386438E9BB263B902680C4B7E
:100D28009A420CD04FF04022536823F0600353607E
:100D3800438D9BB22BB108BDA3F58063E1E7054A5B
:100D4800F2E7012380F84130FFF7B5FFF3E700BF72
:100D5800003800400034004008B5436A9A1C4262DB
:100D68001A880168134B994218D04FF04023DA6073
:100D7800438D9BB2013B9BB24385438D9BB263B9C4
:100D880002680C4B9A420CD04FF04022536823F073
:100D9800A0035360438E9BB22BB108BDA3F58063BB
:100DA800E5E7054AF2E7012380F84130FFF783FFC2
:100DB800F3E700BF003800400034004008B503687E
:100DC800DA68C36A991CC1621A80438E9BB2013BE0
:100DD8009BB24386438E9BB23BB90268536823F0AB
:100DE80060035360438D9BB203B108BD012380F8B3
:100DF8004130FFF760FFF8E710B586B00446036896
:100E08009A680592704A93426FD04FF040229168D9
:100E180004915B680393536802936368B3F5007F9A
:100E280001D0002B70D1059B13F0020F03D0039B58
:100E380013F0800F5CD1049B13F0010F03D0029BC9
:100E480013F0400F58D1049B13F0400F24D0029B9D
:100E580013F0200F20D022685B4B9A4250D04FF0FD
:100E68004022536823F0600353602268536823F0DC
:100E7800A0035360002300932368DA6800929B68FC
:100E88000093009B012384F84130636C43F0020314
:100E980063642046FFF7A6FE059B13F0080F22D0D7
:100EA800039B13F0200F1ED02268536823F0A00381
:100EB80053602268444B9A4224D04FF04022536832
:100EC80023F0600353600023019323689B68019318
:100ED800019B012384F84130636C43F0040363648D
:100EE8002046FFF77FFE06B010BDA2F580628EE7B0
:100EF8002046FFF7E1FE9EE72046FFF7FBFEA2E74C
:100F0800324AAEE7314ADAE7049B13F0020F03D006
:100F1800029B13F0800F4AD1059B13F0010F03D0F9
:100F2800039B13F0400F46D1059B13F0400F1CD0D4
:100F3800039B13F0200F18D02268536823F0600336
:100F480053602268204B9A4239D04FF040225368B0
:100F580023F0A0035360012384F84130636C43F00D
:100F6800020363642046FFF73DFE049B13F0080F5D
:100F7800B9D0029B13F0200FB5D02268124B9A42C9
:100F88001FD04FF04022536823F0A003536022681B
:100F9800536823F060035360012384F84130636C85
:100FA80043F0040363642046FFF71CFE9BE72046DA
:100FB800FFF7D2FEB0E72046FFF700FFB4E7034A89
:100FC800C5E7024ADFE700BF0038004000340040B0
:100FD800002800F0DF8170B582B00446036813F082
:100FE800010F3BD0A64B9B6803F00C03042B2CD0BD
:100FF800A34B9B6803F00C03082B21D06368B3F55F
:10100800803F4FD0B3F5A02F52D09D4B1A6822F4E1
:1010180080321A601A6822F480221A606368002BF2
:1010280050D0FFF795FA0546954B1B6813F4003F1F
:1010380014D1FFF78DFA401B6428F5D90320B0E1DD
:101048008F4B5B6813F4800FD8D08D4B1B6813F45B
:10105800003F03D06368002B00F09E81236813F0E3
:10106800020F54D0864B9B6813F00C0F3ED0844B74
:101078009B6803F00C03082B33D0E368002B67D080
:10108800804B01221A60FFF763FA05467C4B1B6808
:1010980013F0020F53D1FFF75BFA401B0228F5D972
:1010A80003207EE1764A136843F480331360B5E782
:1010B800734B1A6842F480221A601A6842F480322C
:1010C8001A60ABE7FFF744FA05466D4B1B6813F44B
:1010D800003FC3D0FFF73CFA401B6428F5D9032032
:1010E8005FE1674B5B6813F4800FC6D1644B1B68E4
:1010F80013F0020F03D0E368012B40F04F81604AE0
:10110800136823F0F803216943EAC10313602368D5
:1011180013F0080F40D0636963B35B4B01221A6078
:10112800FFF716FA0546564B5B6F13F0020F33D1E3
:10113800FFF70EFA401B0228F5D9032031E1504A87
:10114800136823F0F803216943EAC1031360DEE75B
:101158004C4B00221A60FFF7FBF90546484B1B6809
:1011680013F0020FD3D0FFF7F3F9401B0228F5D98B
:10117800032016E1444B00221A60FFF7E9F90546FF
:101188003F4B5B6F13F0020F06D0FFF7E1F9401BEE
:101198000228F5D9032004E1236813F0040F78D05E
:1011A800374B1B6C13F0805F0DD100230193344B38
:1011B8001A6C42F080521A641B6C03F0805301933E
:1011C800019B012500E00025304B1B6813F4807F4C
:1011D80021D0A368012B32D0052B36D0284B1A6FAB
:1011E80022F001021A671A6F22F004021A67A36834
:1011F800002B34D0FFF7ACF90646214B1B6F13F0D8
:10120800020F45D1FFF7A4F9801B41F288339842B9
:10121800F3D90320C5E01D4A136843F480731360B3
:10122800FFF796F90646194B1B6813F4807FD0D157
:10123800FFF78EF9801B0228F5D90320B1E0104A88
:10124800136F43F001031367D1E70D4B1A6F42F098
:1012580004021A671A6F42F001021A67C7E7FFF71C
:1012680077F90646064B1B6F13F0020F10D0FFF7F5
:101278006FF9801B41F288339842F3D9032090E03C
:101288000038024000004742800E4742007000408C
:10129800EDB9A369002B00F08380494A926802F0F7
:1012A8000C02082A51D0022B17D0464B00221A6094
:1012B800FFF74EF90446424B1B6813F0007F42D0FB
:1012C800FFF746F9001B0228F5D9032069E03C4ADC
:1012D800136C23F080531364DBE73A4B00221A6047
:1012E800FFF736F90546364B1B6813F0007F06D02A
:1012F800FFF72EF9401B0228F5D9032051E0E369D6
:10130800226A1343626A43EA8213A26A5208013AC4
:1013180043EA0243E26A43EA0263294A5360294BDB
:1013280001221A60FFF714F90446254B1B6813F0D5
:10133800007F06D1FFF70CF9001B0228F5D903201E
:101348002FE000202DE000202BE0012B2BD01C4BA0
:101358005B6803F48001E269914226D103F03F0201
:10136800216A8A4223D1616A47F6C0721A40B2EBF9
:10137800811F1ED103F44031A26A5208013AB1EB31
:10138800024F18D103F07063E26AB3EB026F14D115
:10139800002006E001207047012002E0012000E063
:1013A800002002B070BD0120FBE70120F9E7012011
:1013B800F7E70120F5E70120F3E70120F1E700BF97
:1013C8000038024060004742F8B52F4B9B6803F095
:1013D8000C03042B53D0082B53D12B4B5A6802F023
:1013E8003F025B6813F4800F28D0274B5B68C3F378
:1013F800881358010021C01A61F100018E0146EAE4
:10140800906687013C1A66EB0105E90041EA5471D0
:10141800E000C01841F100014B0243EAD0534402F6
:10142800204619460023FEF7CBFE174B5B68C3F333
:10143800014301335B00B0FBF3F023E0124B5B6820
:10144800C3F388135C010025E41A65F10005AE01B9
:1014580046EA9466A701381B66EB0501CC0044EA0E
:101468005074C500E81844F100018B0243EA905318
:101478008402204619460023FEF7A2FED5E703485A
:1014880000E00348F8BD00BF0038024000127A00AF
:101498000024F400002800F09B8070B50D46044637
:1014A8004F4B1B6803F007038B4208D2CBB24C4A60
:1014B8001370136803F007038B4240F08B80236896
:1014C80013F0020F17D013F0040F04D0454A9368A5
:1014D80043F4E0539360236813F0080F04D0414AA3
:1014E800936843F4604393603E4A936823F0F003A3
:1014F800A1680B439360236813F0010F32D063682F
:10150800012B21D09A1E012A25D9364A126812F0D9
:10151800020F61D033498A6822F0030213438B60BB
:10152800FFF716F806462F4B9B6803F00C0362681A
:10153800B3EB820F16D0FFF70BF8801B41F288330C
:101548009842F0D9032042E0264A126812F4003F7C
:10155800E0D101203BE0234A126812F0007FD9D184
:10156800012034E01E4B1B6803F00703AB4207D988
:10157800EAB21B4B1A701B6803F00703AB422DD16C
:10158800236813F0040F06D0164A936823F4E05337
:10159800E1680B439360236813F0080F07D0114AE2
:1015A800936823F46043216943EAC1039360FFF71A
:1015B8000BFF0C4B9B68C3F303130B4AD35CD84057
:1015C8000A4B18600A4B1868FEF776FF002070BDBA
:1015D800012070470120FAE70120F8E70120F6E72B
:1015E800003C024000380240E01E000808000020CD
:1015F80004000020014B1868704700BF0800002055
:1016080008B5FFF7F7FF044B9B68C3F38223034A2F
:10161800D35CD84008BD00BF00380240F01E000867
:1016280030B583B00446036813F0050F06D123686C
:1016380013F0020F2ED1002003B030BD494B002219
:101648001A60FEF785FF0546474B1B6813F0006FCD
:1016580006D0FEF77DFF431B022BF5D90320EBE7ED
:101668006268A3681B0743EA82133F4AC2F88430C2
:101678003C4B01221A60FEF76BFF05463A4B1B688C
:1016880013F0006FD3D1FEF763FF431B022BF5D98C
:101698000320D1E700230193334B1A6C42F08052A8
:1016A8001A641B6C03F080530193019B2F4A136843
:1016B80043F480731360FEF74BFF05462B4B1B6802
:1016C80013F4807F06D1FEF743FF431B022BF5D9A5
:1016D8000320B1E7244B1B6F13F4407312D0E26868
:1016E80002F440729A420DD01F4B1A6F22F44072D6
:1016F8001F4901200860002008601A671B6F13F05B
:10170800010F13D1E36803F44072B2F5407F1ED095
:10171800154A936823F4F813936013490B6FE26832
:10172800C2F30B0213430B67002085E7FEF710FF97
:1017380005460D4B1B6F13F0020FE3D1FEF708FFB0
:10174800401B41F288339842F3D9032074E70649D5
:101758008A6822F4F81223F0704323F44073134389
:101768008B60DAE7680047420038024000700040AA
:10177800400E4742012801D000207047164B9B6855
:1017880013F4000303D0012B23D114487047124BE4
:101798005B6813F4800F14D00F4B5B6803F03F03B2
:1017A8000F48B0FBF3F00C4AD2F88430C3F3881327
:1017B80000FB03F0D2F88430C3F30273B0FBF3F0FC
:1017C8007047054B5B6803F03F030648B0FBF3F036
:1017D800E9E70020704700BF003802400080BB00E6
:1017E80000127A000024F40000285AD010B50446EC
:1017F800436A33B94368B3F5827F05D00023C361D8
:1018080002E00023036143610023A36294F851308E
:10181800002B40D0022384F851302268136823F04B
:1018280040031360636803F48273A26802F40442FD
:101838001343E26802F400621343226902F00202D1
:101848001343626902F001021343A26902F40072B1
:101858001343E26902F038021343226A02F080025D
:101868001343A26A02F40052216813430B60638B8E
:1018780003F00403626A02F01002216813434B600C
:101888002268D36923F40063D361002060650123D3
:1018980084F8513010BD84F85030204600F06AFAC0
:1018A800B8E70120704700002DE9F04F8DB0002403
:1018B8000794089409940A940B940194654B1A6B45
:1018C80042F010021A631A6B02F010020192019A98
:1018D80002941A6B42F004021A631A6B02F00402B3
:1018E8000292029A03941A6B42F080021A631A6BEE
:1018F80002F080020392039A04941A6B42F00102E8
:101908001A631A6B02F001020492049A05941A6B86
:1019180042F002021A631A6B02F002020592059A5B
:1019280006941A6B42F008021A631B6B03F0080353
:101938000693069BDFF82881224608214046FEF7D9
:1019480067FFDFF82091012211464846FEF760FF45
:10195800414E22464FF210013046FEF759FF082744
:1019680007970125089509940A9407A94046FEF7A8
:1019780065FE0795089509940A9407A94846FEF755
:101988005DFE07970227089709940A944FF0050B04
:10199800CDF82CB007A94846FEF750FE07954FF43E
:1019A800901ACDF820A00994A9F5006907A948461E
:1019B800FEF744FE042307930894099407A92748CF
:1019C800FEF73CFE4FF480630793089709940A9446
:1019D800CDF82CB007A92148FEF730FE4FF21003CE
:1019E8000793089509940A9407A93046FEF726FE3E
:1019F8004FF4007307930894099407A94846FEF723
:101A08001DFE4FF4E0530793089709940A940A239C
:101A18000B9307A94846FEF711FE20230793089465
:101A2800099407A93046FEF709FE0797CDF820A0CC
:101A3800099407A94046FEF701FE4FF400530793A7
:101A4800089509940A9407A93046FEF7F7FD0DB0EA
:101A5800BDE8F08F00380240000C0240000402404C
:101A6800001002400008024072B6FEE708B50A48B6
:101A78000A4B03600A4B436000238360C3604FF442
:101A88008042026143618361C3610362FEF7C6FE5F
:101A980000B908BDFFF7E8FF3000002000540040FF
:101AA800A086010008B50A480A4B03604FF400728B
:101AB800426000238360C3600261074A4261836118
:101AC800C3610362FEF788FF00B908BDFFF7CCFFCA
:101AD800DC000020003C00400077010008B50D48FC
:101AE8000D4B03604FF48273436000238360C3602F
:101AF800036143614FF400728261C3610362436210
:101B080083620A23C362FFF76FFE00B908BDFFF7BF
:101B1800ABFF00BF840000200030014000B595B045
:101B28003022002108A800F0C1F900230393049390
:101B380005930693079301931F4A116C41F0805156
:101B48001164126C02F080520192019A02931B4AAE
:101B5800116841F480411160126802F480420292D7
:101B6800029A0222089201210B9110210C910E92E7
:101B78000F9308231093A82311931292072313930A
:101B880008A8FFF725FA98B90F23039302230493B3
:101B9800002305934FF4A05306934FF48053079303
:101BA800052103A8FFF776FC20B915B05DF804FB02
:101BB800FFF75AFFFFF758FF003802400070004057
:101BC80008B5FEF79FFCFFF7A9FFFFF76DFEFFF7CB
:101BD8004DFFFFF767FFFFF781FF0A4C01224FF423
:101BE80000512046FEF714FEC820FEF7B7FC00227D
:101BF8004FF400512046FEF70BFEC820FEF7AEFC5E
:101C0800EBE700BF000C024000B583B00021009153
:101C18000C4B5A6C42F480425A645A6C02F480426B
:101C28000092009A01911A6C42F080521A641B6C5F
:101C380003F080530193019B0720FEF7A3FC03B038
:101C48005DF804FB0038024030B589B000230393E7
:101C580004930593069307930268144B9A4201D0A4
:101C680009B030BD00250195114C236B43F00203E8
:101C78002363236B03F002030193019B4FF410735A
:101C8800039312230493059506950423079303A948
:101C98000848FEF7D3FC0295236C43F40013236431
:101CA800236C03F400130293029BD9E7005400400D
:101CB800003802400004024070B58CB0002307933E
:101CC800089309930A930B9306930268254B9A424B
:101CD80001D00CB070BD01230393C02304930223E9
:101CE800059303A8FFF79CFC002837D10024009433
:101CF8001D4B1A6C42F400421A641A6C02F400423A
:101D08000092009A01941A6B42F001021A631A6B4E
:101D180002F001020192019A02941A6B42F0040245
:101D28001A631B6B03F004030293029B10230793AF
:101D38000226089609940A9406250B9507A90B48CC
:101D4800FEF77CFC4FF4A4530793089609940A9471
:101D58000B9507A90648FEF771FCBAE7FFF784FE62
:101D6800C4E700BF003C00400038024000000240C9
:101D78000008024000B589B000230393049305933B
:101D8800069307930268154B9A4202D009B05DF892
:101D980004FB0022019203F58433596C41F480510D
:101DA8005964596C01F48051019101990292196B9F
:101DB80041F0010119631B6B03F001030293029BBD
:101DC800E0230393022304930592069205230793C5
:101DD80003A90348FEF732FCD8E700BF00300140F2
:101DE80000000240FEE7FEE7FEE7FEE7FEE7704779
:101DF8007047704708B5FEF79FFB08BD034AD2F845
:101E0800883043F47003C2F88830704700ED00E072
:101E1800DFF834D00D480E490E4A002302E0D458AA
:101E2800C4500433C4188C42F9D30B4A0B4C00231A
:101E380001E013600432A242FBD3FFF7DFFF00F09A
:101E480011F8FFF7BDFE70470000022000000020D7
:101E580010000020101F000810000020280100209A
:101E6800FEE7000070B50D4D0D4C641BA410002654
:101E7800A64209D10B4D0C4C00F020F8641BA410AD
:101E88000026A64205D170BD55F8043B9847013697
:101E9800EEE755F8043B98470136F2E7001F0008C3
:101EA800001F0008001F0008041F00080244034622
:101EB800934200D1704703F8011BF9E7F8B500BF5A
:101EC800F8BC08BC9E467047F8B500BFF8BC08BC13
:081ED8009E4670470000000067
:101EE00000000000000000000102030406070809CA
:081EF0000000000001020304E0
:081EF80000E3FF7F0100000080
:081F0000AD0100080000000023
:081F080089010008000000003F
:101F100001000000100000000024F4000000000098
:0400000508001E19B8
:00000001FF
